{
  "contractName": "Exchange",
  "abi": [
    {
      "inputs": [
        {
          "internalType": "address",
          "name": "_feeAccount",
          "type": "address"
        },
        {
          "internalType": "uint256",
          "name": "_feePercent",
          "type": "uint256"
        }
      ],
      "stateMutability": "nonpayable",
      "type": "constructor"
    },
    {
      "anonymous": false,
      "inputs": [
        {
          "indexed": false,
          "internalType": "uint256",
          "name": "id",
          "type": "uint256"
        },
        {
          "indexed": false,
          "internalType": "address",
          "name": "user",
          "type": "address"
        },
        {
          "indexed": false,
          "internalType": "address",
          "name": "tokenGet",
          "type": "address"
        },
        {
          "indexed": false,
          "internalType": "uint256",
          "name": "amountGet",
          "type": "uint256"
        },
        {
          "indexed": false,
          "internalType": "address",
          "name": "tokenGive",
          "type": "address"
        },
        {
          "indexed": false,
          "internalType": "uint256",
          "name": "amountGive",
          "type": "uint256"
        },
        {
          "indexed": false,
          "internalType": "uint256",
          "name": "timestamp",
          "type": "uint256"
        }
      ],
      "name": "Cancel",
      "type": "event"
    },
    {
      "anonymous": false,
      "inputs": [
        {
          "indexed": false,
          "internalType": "address",
          "name": "token",
          "type": "address"
        },
        {
          "indexed": false,
          "internalType": "address",
          "name": "user",
          "type": "address"
        },
        {
          "indexed": false,
          "internalType": "uint256",
          "name": "amount",
          "type": "uint256"
        },
        {
          "indexed": false,
          "internalType": "uint256",
          "name": "balance",
          "type": "uint256"
        }
      ],
      "name": "Deposit",
      "type": "event"
    },
    {
      "anonymous": false,
      "inputs": [
        {
          "indexed": false,
          "internalType": "uint256",
          "name": "id",
          "type": "uint256"
        },
        {
          "indexed": false,
          "internalType": "address",
          "name": "user",
          "type": "address"
        },
        {
          "indexed": false,
          "internalType": "address",
          "name": "tokenGet",
          "type": "address"
        },
        {
          "indexed": false,
          "internalType": "uint256",
          "name": "amountGet",
          "type": "uint256"
        },
        {
          "indexed": false,
          "internalType": "address",
          "name": "tokenGive",
          "type": "address"
        },
        {
          "indexed": false,
          "internalType": "uint256",
          "name": "amountGive",
          "type": "uint256"
        },
        {
          "indexed": false,
          "internalType": "uint256",
          "name": "timestamp",
          "type": "uint256"
        }
      ],
      "name": "Order",
      "type": "event"
    },
    {
      "anonymous": false,
      "inputs": [
        {
          "indexed": false,
          "internalType": "uint256",
          "name": "id",
          "type": "uint256"
        },
        {
          "indexed": false,
          "internalType": "address",
          "name": "user",
          "type": "address"
        },
        {
          "indexed": false,
          "internalType": "address",
          "name": "tokenGet",
          "type": "address"
        },
        {
          "indexed": false,
          "internalType": "uint256",
          "name": "amountGet",
          "type": "uint256"
        },
        {
          "indexed": false,
          "internalType": "address",
          "name": "tokenGive",
          "type": "address"
        },
        {
          "indexed": false,
          "internalType": "uint256",
          "name": "amountGive",
          "type": "uint256"
        },
        {
          "indexed": false,
          "internalType": "uint256",
          "name": "timestamp",
          "type": "uint256"
        }
      ],
      "name": "Trade",
      "type": "event"
    },
    {
      "anonymous": false,
      "inputs": [
        {
          "indexed": false,
          "internalType": "address",
          "name": "token",
          "type": "address"
        },
        {
          "indexed": false,
          "internalType": "address",
          "name": "user",
          "type": "address"
        },
        {
          "indexed": false,
          "internalType": "uint256",
          "name": "amount",
          "type": "uint256"
        },
        {
          "indexed": false,
          "internalType": "uint256",
          "name": "balance",
          "type": "uint256"
        }
      ],
      "name": "WithDraw",
      "type": "event"
    },
    {
      "inputs": [],
      "name": "feeAccount",
      "outputs": [
        {
          "internalType": "address",
          "name": "",
          "type": "address"
        }
      ],
      "stateMutability": "view",
      "type": "function",
      "constant": true
    },
    {
      "inputs": [],
      "name": "feePercent",
      "outputs": [
        {
          "internalType": "uint256",
          "name": "",
          "type": "uint256"
        }
      ],
      "stateMutability": "view",
      "type": "function",
      "constant": true
    },
    {
      "inputs": [
        {
          "internalType": "uint256",
          "name": "",
          "type": "uint256"
        }
      ],
      "name": "orderCancel",
      "outputs": [
        {
          "internalType": "bool",
          "name": "",
          "type": "bool"
        }
      ],
      "stateMutability": "view",
      "type": "function",
      "constant": true
    },
    {
      "inputs": [],
      "name": "orderCount",
      "outputs": [
        {
          "internalType": "uint256",
          "name": "",
          "type": "uint256"
        }
      ],
      "stateMutability": "view",
      "type": "function",
      "constant": true
    },
    {
      "inputs": [
        {
          "internalType": "uint256",
          "name": "",
          "type": "uint256"
        }
      ],
      "name": "orderFill",
      "outputs": [
        {
          "internalType": "bool",
          "name": "",
          "type": "bool"
        }
      ],
      "stateMutability": "view",
      "type": "function",
      "constant": true
    },
    {
      "inputs": [
        {
          "internalType": "uint256",
          "name": "",
          "type": "uint256"
        }
      ],
      "name": "orders",
      "outputs": [
        {
          "internalType": "uint256",
          "name": "id",
          "type": "uint256"
        },
        {
          "internalType": "address",
          "name": "user",
          "type": "address"
        },
        {
          "internalType": "address",
          "name": "tokenGet",
          "type": "address"
        },
        {
          "internalType": "uint256",
          "name": "amountGet",
          "type": "uint256"
        },
        {
          "internalType": "address",
          "name": "tokenGive",
          "type": "address"
        },
        {
          "internalType": "uint256",
          "name": "amountGive",
          "type": "uint256"
        },
        {
          "internalType": "uint256",
          "name": "timestamp",
          "type": "uint256"
        }
      ],
      "stateMutability": "view",
      "type": "function",
      "constant": true
    },
    {
      "inputs": [
        {
          "internalType": "address",
          "name": "",
          "type": "address"
        },
        {
          "internalType": "address",
          "name": "",
          "type": "address"
        }
      ],
      "name": "tokens",
      "outputs": [
        {
          "internalType": "uint256",
          "name": "",
          "type": "uint256"
        }
      ],
      "stateMutability": "view",
      "type": "function",
      "constant": true
    },
    {
      "inputs": [],
      "name": "depositEther",
      "outputs": [],
      "stateMutability": "payable",
      "type": "function",
      "payable": true
    },
    {
      "inputs": [
        {
          "internalType": "address",
          "name": "_token",
          "type": "address"
        },
        {
          "internalType": "uint256",
          "name": "_amount",
          "type": "uint256"
        }
      ],
      "name": "depositToken",
      "outputs": [],
      "stateMutability": "nonpayable",
      "type": "function"
    },
    {
      "inputs": [
        {
          "internalType": "uint256",
          "name": "_amount",
          "type": "uint256"
        }
      ],
      "name": "withdrawEther",
      "outputs": [],
      "stateMutability": "nonpayable",
      "type": "function"
    },
    {
      "inputs": [
        {
          "internalType": "address",
          "name": "_token",
          "type": "address"
        },
        {
          "internalType": "uint256",
          "name": "_amount",
          "type": "uint256"
        }
      ],
      "name": "withdrawToken",
      "outputs": [],
      "stateMutability": "nonpayable",
      "type": "function"
    },
    {
      "inputs": [
        {
          "internalType": "address",
          "name": "_token",
          "type": "address"
        },
        {
          "internalType": "address",
          "name": "_user",
          "type": "address"
        }
      ],
      "name": "balanceOf",
      "outputs": [
        {
          "internalType": "uint256",
          "name": "",
          "type": "uint256"
        }
      ],
      "stateMutability": "view",
      "type": "function",
      "constant": true
    },
    {
      "inputs": [
        {
          "internalType": "address",
          "name": "_tokenGet",
          "type": "address"
        },
        {
          "internalType": "uint256",
          "name": "_amountGet",
          "type": "uint256"
        },
        {
          "internalType": "address",
          "name": "_tokenGive",
          "type": "address"
        },
        {
          "internalType": "uint256",
          "name": "_amountGive",
          "type": "uint256"
        }
      ],
      "name": "makeOrder",
      "outputs": [],
      "stateMutability": "nonpayable",
      "type": "function"
    },
    {
      "inputs": [
        {
          "internalType": "uint256",
          "name": "_id",
          "type": "uint256"
        }
      ],
      "name": "cancelOrder",
      "outputs": [],
      "stateMutability": "nonpayable",
      "type": "function"
    },
    {
      "inputs": [
        {
          "internalType": "uint256",
          "name": "_id",
          "type": "uint256"
        }
      ],
      "name": "fillOrder",
      "outputs": [],
      "stateMutability": "nonpayable",
      "type": "function"
    }
  ],
  "bytecode": "0x60806040523480156200001157600080fd5b506040516200252f3803806200252f83398181016040528101906200003791906200012b565b816000806101000a81548173ffffffffffffffffffffffffffffffffffffffff021916908373ffffffffffffffffffffffffffffffffffffffff16021790555080600181905550505062000172565b600080fd5b600073ffffffffffffffffffffffffffffffffffffffff82169050919050565b6000620000b8826200008b565b9050919050565b620000ca81620000ab565b8114620000d657600080fd5b50565b600081519050620000ea81620000bf565b92915050565b6000819050919050565b6200010581620000f0565b81146200011157600080fd5b50565b6000815190506200012581620000fa565b92915050565b6000806040838503121562000145576200014462000086565b5b60006200015585828601620000d9565b9250506020620001688582860162000114565b9150509250929050565b6123ad80620001826000396000f3fe608060405260043610610105576000357c0100000000000000000000000000000000000000000000000000000000900480637fd6f15c116100a75780639e281a98116100765780639e281a98146102dc578063a85c38ef14610305578063c348ac6514610348578063f7888aec1461038557610105565b80637fd6f15c1461024157806398ea5fca1461026c5780639a5c90aa146102765780639bc896f91461029f57610105565b8063508493bc116100e3578063508493bc14610187578063514fcac7146101c457806365e17c9d146101ed57806367b830ad1461021857610105565b80632453ffa81461010a578063338b5dea146101355780633bed33ce1461015e575b600080fd5b34801561011657600080fd5b5061011f6103c2565b60405161012c9190611d12565b60405180910390f35b34801561014157600080fd5b5061015c60048036038101906101579190611dbc565b6103c8565b005b34801561016a57600080fd5b5061018560048036038101906101809190611dfc565b610672565b005b34801561019357600080fd5b506101ae60048036038101906101a99190611e29565b61090e565b6040516101bb9190611d12565b60405180910390f35b3480156101d057600080fd5b506101eb60048036038101906101e69190611dfc565b610933565b005b3480156101f957600080fd5b50610202610b16565b60405161020f9190611e78565b60405180910390f35b34801561022457600080fd5b5061023f600480360381019061023a9190611dfc565b610b3a565b005b34801561024d57600080fd5b506102566113f7565b6040516102639190611d12565b60405180910390f35b6102746113fd565b005b34801561028257600080fd5b5061029d60048036038101906102989190611e93565b6115c8565b005b3480156102ab57600080fd5b506102c660048036038101906102c19190611dfc565b611807565b6040516102d39190611f15565b60405180910390f35b3480156102e857600080fd5b5061030360048036038101906102fe9190611dbc565b611827565b005b34801561031157600080fd5b5061032c60048036038101906103279190611dfc565b611b58565b60405161033f9796959493929190611f30565b60405180910390f35b34801561035457600080fd5b5061036f600480360381019061036a9190611dfc565b611bfa565b60405161037c9190611f15565b60405180910390f35b34801561039157600080fd5b506103ac60048036038101906103a79190611e29565b611c1a565b6040516103b99190611d12565b60405180910390f35b60065481565b600073ffffffffffffffffffffffffffffffffffffffff168273ffffffffffffffffffffffffffffffffffffffff160361040157600080fd5b8173ffffffffffffffffffffffffffffffffffffffff166323b872dd3330846040518463ffffffff167c010000000000000000000000000000000000000000000000000000000002815260040161045a93929190611f9f565b6020604051808303816000875af1158015610479573d6000803e3d6000fd5b505050506040513d601f19601f8201168201806040525081019061049d9190612002565b6104a657600080fd5b61053581600260008573ffffffffffffffffffffffffffffffffffffffff1673ffffffffffffffffffffffffffffffffffffffff16815260200190815260200160002060003373ffffffffffffffffffffffffffffffffffffffff1673ffffffffffffffffffffffffffffffffffffffff16815260200190815260200160002054611ca190919063ffffffff16565b600260008473ffffffffffffffffffffffffffffffffffffffff1673ffffffffffffffffffffffffffffffffffffffff16815260200190815260200160002060003373ffffffffffffffffffffffffffffffffffffffff1673ffffffffffffffffffffffffffffffffffffffff168152602001908152602001600020819055507fdcbc1c05240f31ff3ad067ef1ee35ce4997762752e3a095284754544f4c709d7823383600260008773ffffffffffffffffffffffffffffffffffffffff1673ffffffffffffffffffffffffffffffffffffffff16815260200190815260200160002060003373ffffffffffffffffffffffffffffffffffffffff1673ffffffffffffffffffffffffffffffffffffffff16815260200190815260200160002054604051610666949392919061202f565b60405180910390a15050565b80600260008073ffffffffffffffffffffffffffffffffffffffff1673ffffffffffffffffffffffffffffffffffffffff16815260200190815260200160002060003373ffffffffffffffffffffffffffffffffffffffff1673ffffffffffffffffffffffffffffffffffffffff1681526020019081526020016000205410156106fb57600080fd5b61078a81600260008073ffffffffffffffffffffffffffffffffffffffff1673ffffffffffffffffffffffffffffffffffffffff16815260200190815260200160002060003373ffffffffffffffffffffffffffffffffffffffff1673ffffffffffffffffffffffffffffffffffffffff16815260200190815260200160002054611cb790919063ffffffff16565b600260008073ffffffffffffffffffffffffffffffffffffffff1673ffffffffffffffffffffffffffffffffffffffff16815260200190815260200160002060003373ffffffffffffffffffffffffffffffffffffffff1673ffffffffffffffffffffffffffffffffffffffff168152602001908152602001600020819055503373ffffffffffffffffffffffffffffffffffffffff166108fc829081150290604051600060405180830381858888f19350505050158015610850573d6000803e3d6000fd5b507f2ffdfede8e3142dc22c86f615731d1d79115cf0652b6880e40eb6ef76ed86da260003383600260008073ffffffffffffffffffffffffffffffffffffffff1673ffffffffffffffffffffffffffffffffffffffff16815260200190815260200160002060003373ffffffffffffffffffffffffffffffffffffffff1673ffffffffffffffffffffffffffffffffffffffff16815260200190815260200160002054604051610903949392919061202f565b60405180910390a150565b6002602052816000526040600020602052806000526040600020600091509150505481565b6000600360008381526020019081526020016000206040518060e0016040529081600082015481526020016001820160009054906101000a900473ffffffffffffffffffffffffffffffffffffffff1673ffffffffffffffffffffffffffffffffffffffff1673ffffffffffffffffffffffffffffffffffffffff1681526020016002820160009054906101000a900473ffffffffffffffffffffffffffffffffffffffff1673ffffffffffffffffffffffffffffffffffffffff1673ffffffffffffffffffffffffffffffffffffffff168152602001600382015481526020016004820160009054906101000a900473ffffffffffffffffffffffffffffffffffffffff1673ffffffffffffffffffffffffffffffffffffffff1673ffffffffffffffffffffffffffffffffffffffff16815260200160058201548152602001600682015481525050905081816000015114610a8f57600080fd5b60016004600084815260200190815260200160002060006101000a81548160ff0219169083151502179055507f77de1da0be5f2d3b110d05c6694e5c4ff2d9da7cd23d84353ecf78c7b5acec618160000151338360400151846060015185608001518660a0015142604051610b0a9796959493929190611f30565b60405180910390a15050565b60008054906101000a900473ffffffffffffffffffffffffffffffffffffffff1681565b6000600360008381526020019081526020016000206040518060e0016040529081600082015481526020016001820160009054906101000a900473ffffffffffffffffffffffffffffffffffffffff1673ffffffffffffffffffffffffffffffffffffffff1673ffffffffffffffffffffffffffffffffffffffff1681526020016002820160009054906101000a900473ffffffffffffffffffffffffffffffffffffffff1673ffffffffffffffffffffffffffffffffffffffff1673ffffffffffffffffffffffffffffffffffffffff168152602001600382015481526020016004820160009054906101000a900473ffffffffffffffffffffffffffffffffffffffff1673ffffffffffffffffffffffffffffffffffffffff1673ffffffffffffffffffffffffffffffffffffffff16815260200160058201548152602001600682015481525050905081816000015114610c9657600080fd5b6000610cc46064610cb66001548560600151611ccd90919063ffffffff16565b611ce390919063ffffffff16565b90508160a00151610cdd83608001518460200151611c1a565b1015610d1e576040517f08c379a0000000000000000000000000000000000000000000000000000000008152600401610d15906120f7565b60405180910390fd5b610d35818360600151611ca190919063ffffffff16565b610d43836040015133611c1a565b1015610d84576040517f08c379a0000000000000000000000000000000000000000000000000000000008152600401610d7b90612189565b60405180910390fd5b610e2d610d9e828460600151611ca190919063ffffffff16565b60026000856040015173ffffffffffffffffffffffffffffffffffffffff1673ffffffffffffffffffffffffffffffffffffffff16815260200190815260200160002060003373ffffffffffffffffffffffffffffffffffffffff1673ffffffffffffffffffffffffffffffffffffffff16815260200190815260200160002054611cb790919063ffffffff16565b60026000846040015173ffffffffffffffffffffffffffffffffffffffff1673ffffffffffffffffffffffffffffffffffffffff16815260200190815260200160002060003373ffffffffffffffffffffffffffffffffffffffff1673ffffffffffffffffffffffffffffffffffffffff16815260200190815260200160002081905550610f658160026000856040015173ffffffffffffffffffffffffffffffffffffffff1673ffffffffffffffffffffffffffffffffffffffff16815260200190815260200160002060008060009054906101000a900473ffffffffffffffffffffffffffffffffffffffff1673ffffffffffffffffffffffffffffffffffffffff1673ffffffffffffffffffffffffffffffffffffffff16815260200190815260200160002054611ca190919063ffffffff16565b60026000846040015173ffffffffffffffffffffffffffffffffffffffff1673ffffffffffffffffffffffffffffffffffffffff16815260200190815260200160002060008060009054906101000a900473ffffffffffffffffffffffffffffffffffffffff1673ffffffffffffffffffffffffffffffffffffffff1673ffffffffffffffffffffffffffffffffffffffff168152602001908152602001600020819055506110a5826060015160026000856040015173ffffffffffffffffffffffffffffffffffffffff1673ffffffffffffffffffffffffffffffffffffffff1681526020019081526020016000206000856020015173ffffffffffffffffffffffffffffffffffffffff1673ffffffffffffffffffffffffffffffffffffffff16815260200190815260200160002054611ca190919063ffffffff16565b60026000846040015173ffffffffffffffffffffffffffffffffffffffff1673ffffffffffffffffffffffffffffffffffffffff1681526020019081526020016000206000846020015173ffffffffffffffffffffffffffffffffffffffff1673ffffffffffffffffffffffffffffffffffffffff168152602001908152602001600020819055506111c48260a0015160026000856080015173ffffffffffffffffffffffffffffffffffffffff1673ffffffffffffffffffffffffffffffffffffffff16815260200190815260200160002060003373ffffffffffffffffffffffffffffffffffffffff1673ffffffffffffffffffffffffffffffffffffffff16815260200190815260200160002054611ca190919063ffffffff16565b60026000846080015173ffffffffffffffffffffffffffffffffffffffff1673ffffffffffffffffffffffffffffffffffffffff16815260200190815260200160002060003373ffffffffffffffffffffffffffffffffffffffff1673ffffffffffffffffffffffffffffffffffffffff168152602001908152602001600020819055506112e38260a0015160026000856080015173ffffffffffffffffffffffffffffffffffffffff1673ffffffffffffffffffffffffffffffffffffffff1681526020019081526020016000206000856020015173ffffffffffffffffffffffffffffffffffffffff1673ffffffffffffffffffffffffffffffffffffffff16815260200190815260200160002054611cb790919063ffffffff16565b60026000846080015173ffffffffffffffffffffffffffffffffffffffff1673ffffffffffffffffffffffffffffffffffffffff1681526020019081526020016000206000846020015173ffffffffffffffffffffffffffffffffffffffff1673ffffffffffffffffffffffffffffffffffffffff1681526020019081526020016000208190555060016005600085815260200190815260200160002060006101000a81548160ff0219169083151502179055507faba0fc968824c4949185cfdd55a197a4d41616a98cc2d97fd34224ebcdf76744826000015183602001518460400151856060015186608001518760a00151426040516113ea9796959493929190611f30565b60405180910390a1505050565b60015481565b61148c34600260008073ffffffffffffffffffffffffffffffffffffffff1673ffffffffffffffffffffffffffffffffffffffff16815260200190815260200160002060003373ffffffffffffffffffffffffffffffffffffffff1673ffffffffffffffffffffffffffffffffffffffff16815260200190815260200160002054611ca190919063ffffffff16565b600260008073ffffffffffffffffffffffffffffffffffffffff1673ffffffffffffffffffffffffffffffffffffffff16815260200190815260200160002060003373ffffffffffffffffffffffffffffffffffffffff1673ffffffffffffffffffffffffffffffffffffffff168152602001908152602001600020819055507fdcbc1c05240f31ff3ad067ef1ee35ce4997762752e3a095284754544f4c709d760003334600260008073ffffffffffffffffffffffffffffffffffffffff1673ffffffffffffffffffffffffffffffffffffffff16815260200190815260200160002060003373ffffffffffffffffffffffffffffffffffffffff1673ffffffffffffffffffffffffffffffffffffffff168152602001908152602001600020546040516115be949392919061202f565b60405180910390a1565b806115d38333611c1a565b1015611614576040517f08c379a000000000000000000000000000000000000000000000000000000000815260040161160b906121f5565b60405180910390fd5b61162a6001600654611ca190919063ffffffff16565b6006819055506040518060e0016040528060065481526020013373ffffffffffffffffffffffffffffffffffffffff1681526020018573ffffffffffffffffffffffffffffffffffffffff1681526020018481526020018373ffffffffffffffffffffffffffffffffffffffff168152602001828152602001428152506003600060065481526020019081526020016000206000820151816000015560208201518160010160006101000a81548173ffffffffffffffffffffffffffffffffffffffff021916908373ffffffffffffffffffffffffffffffffffffffff16021790555060408201518160020160006101000a81548173ffffffffffffffffffffffffffffffffffffffff021916908373ffffffffffffffffffffffffffffffffffffffff1602179055506060820151816003015560808201518160040160006101000a81548173ffffffffffffffffffffffffffffffffffffffff021916908373ffffffffffffffffffffffffffffffffffffffff16021790555060a0820151816005015560c082015181600601559050507f9d33853d43e3607b4cc01fdc78338ff2dca6fef7db9232dae6d3eb55fbc3b1096006543386868686426040516117f99796959493929190611f30565b60405180910390a150505050565b60046020528060005260406000206000915054906101000a900460ff1681565b600073ffffffffffffffffffffffffffffffffffffffff168273ffffffffffffffffffffffffffffffffffffffff160361186057600080fd5b80600260008473ffffffffffffffffffffffffffffffffffffffff1673ffffffffffffffffffffffffffffffffffffffff16815260200190815260200160002060003373ffffffffffffffffffffffffffffffffffffffff1673ffffffffffffffffffffffffffffffffffffffff1681526020019081526020016000205410156118e957600080fd5b61197881600260008573ffffffffffffffffffffffffffffffffffffffff1673ffffffffffffffffffffffffffffffffffffffff16815260200190815260200160002060003373ffffffffffffffffffffffffffffffffffffffff1673ffffffffffffffffffffffffffffffffffffffff16815260200190815260200160002054611cb790919063ffffffff16565b600260008473ffffffffffffffffffffffffffffffffffffffff1673ffffffffffffffffffffffffffffffffffffffff16815260200190815260200160002060003373ffffffffffffffffffffffffffffffffffffffff1673ffffffffffffffffffffffffffffffffffffffff168152602001908152602001600020819055508173ffffffffffffffffffffffffffffffffffffffff1663a9059cbb33836040518363ffffffff167c0100000000000000000000000000000000000000000000000000000000028152600401611a4f929190612215565b6020604051808303816000875af1158015611a6e573d6000803e3d6000fd5b505050506040513d601f19601f82011682018060405250810190611a929190612002565b611a9b57600080fd5b7f2ffdfede8e3142dc22c86f615731d1d79115cf0652b6880e40eb6ef76ed86da2823383600260008773ffffffffffffffffffffffffffffffffffffffff1673ffffffffffffffffffffffffffffffffffffffff16815260200190815260200160002060003373ffffffffffffffffffffffffffffffffffffffff1673ffffffffffffffffffffffffffffffffffffffff16815260200190815260200160002054604051611b4c949392919061202f565b60405180910390a15050565b60036020528060005260406000206000915090508060000154908060010160009054906101000a900473ffffffffffffffffffffffffffffffffffffffff16908060020160009054906101000a900473ffffffffffffffffffffffffffffffffffffffff16908060030154908060040160009054906101000a900473ffffffffffffffffffffffffffffffffffffffff16908060050154908060060154905087565b60056020528060005260406000206000915054906101000a900460ff1681565b6000600260008473ffffffffffffffffffffffffffffffffffffffff1673ffffffffffffffffffffffffffffffffffffffff16815260200190815260200160002060008373ffffffffffffffffffffffffffffffffffffffff1673ffffffffffffffffffffffffffffffffffffffff16815260200190815260200160002054905092915050565b60008183611caf919061226d565b905092915050565b60008183611cc591906122a1565b905092915050565b60008183611cdb91906122d5565b905092915050565b60008183611cf19190612346565b905092915050565b6000819050919050565b611d0c81611cf9565b82525050565b6000602082019050611d276000830184611d03565b92915050565b600080fd5b600073ffffffffffffffffffffffffffffffffffffffff82169050919050565b6000611d5d82611d32565b9050919050565b611d6d81611d52565b8114611d7857600080fd5b50565b600081359050611d8a81611d64565b92915050565b611d9981611cf9565b8114611da457600080fd5b50565b600081359050611db681611d90565b92915050565b60008060408385031215611dd357611dd2611d2d565b5b6000611de185828601611d7b565b9250506020611df285828601611da7565b9150509250929050565b600060208284031215611e1257611e11611d2d565b5b6000611e2084828501611da7565b91505092915050565b60008060408385031215611e4057611e3f611d2d565b5b6000611e4e85828601611d7b565b9250506020611e5f85828601611d7b565b9150509250929050565b611e7281611d52565b82525050565b6000602082019050611e8d6000830184611e69565b92915050565b60008060008060808587031215611ead57611eac611d2d565b5b6000611ebb87828801611d7b565b9450506020611ecc87828801611da7565b9350506040611edd87828801611d7b565b9250506060611eee87828801611da7565b91505092959194509250565b60008115159050919050565b611f0f81611efa565b82525050565b6000602082019050611f2a6000830184611f06565b92915050565b600060e082019050611f45600083018a611d03565b611f526020830189611e69565b611f5f6040830188611e69565b611f6c6060830187611d03565b611f796080830186611e69565b611f8660a0830185611d03565b611f9360c0830184611d03565b98975050505050505050565b6000606082019050611fb46000830186611e69565b611fc16020830185611e69565b611fce6040830184611d03565b949350505050565b611fdf81611efa565b8114611fea57600080fd5b50565b600081519050611ffc81611fd6565b92915050565b60006020828403121561201857612017611d2d565b5b600061202684828501611fed565b91505092915050565b60006080820190506120446000830187611e69565b6120516020830186611e69565b61205e6040830185611d03565b61206b6060830184611d03565b95945050505050565b600082825260208201905092915050565b7fe5889be5bbbae8aea2e58d95e79a84e794a8e688b7e79a84e4bd99e9a29de4b860008201527f8de8b6b300000000000000000000000000000000000000000000000000000000602082015250565b60006120e1602483612074565b91506120ec82612085565b604082019050919050565b60006020820190508181036000830152612110816120d4565b9050919050565b7fe5a1abe58585e8aea2e58d95e79a84e794a8e688b7e79a84e4bd99e9a29de4b860008201527f8de8b6b300000000000000000000000000000000000000000000000000000000602082015250565b6000612173602483612074565b915061217e82612117565b604082019050919050565b600060208201905081810360008301526121a281612166565b9050919050565b7fe5889be5bbbae8aea2e58d95e697b6e4bd99e9a29de4b88de8b6b30000000000600082015250565b60006121df601b83612074565b91506121ea826121a9565b602082019050919050565b6000602082019050818103600083015261220e816121d2565b9050919050565b600060408201905061222a6000830185611e69565b6122376020830184611d03565b9392505050565b7f4e487b7100000000000000000000000000000000000000000000000000000000600052601160045260246000fd5b600061227882611cf9565b915061228383611cf9565b925082820190508082111561229b5761229a61223e565b5b92915050565b60006122ac82611cf9565b91506122b783611cf9565b92508282039050818111156122cf576122ce61223e565b5b92915050565b60006122e082611cf9565b91506122eb83611cf9565b92508282026122f981611cf9565b915082820484148315176123105761230f61223e565b5b5092915050565b7f4e487b7100000000000000000000000000000000000000000000000000000000600052601260045260246000fd5b600061235182611cf9565b915061235c83611cf9565b92508261236c5761236b612317565b5b82820490509291505056fea264697066735822122099be29ab041e8864a833253bb17b7def64dc4e2c1d3ace71bfd99098bbc9ef3d64736f6c63430008110033",
  "immutableReferences": {},
  "source": "// SPDX-License-Identifier: GPL-3.0\r\n//  MIT...\r\npragma solidity >=0.4.16 <0.9.0; //solidity\r\nimport \"openzeppelin-solidity/contracts/utils/math/SafeMath.sol\";\r\nimport \"./KerwinToken.sol\";\r\n\r\ncontract Exchange {\r\n    using SafeMath for uint256; //uint256 sub ,add\r\n\r\n    //\r\n    address public feeAccount;\r\n    uint256 public feePercent; //\r\n    address constant ETHER = address(0);\r\n    mapping(address => mapping(address => uint256)) public tokens;\r\n\r\n    //\r\n    struct _Order {\r\n        uint256 id;\r\n        address user;\r\n        address tokenGet;\r\n        uint256 amountGet;\r\n\r\n        address tokenGive;\r\n        uint256 amountGive;\r\n\r\n        uint256 timestamp;\r\n    }\r\n\r\n    // _Order[] orderlist ;\r\n\r\n    mapping(uint256=>_Order) public orders;\r\n\r\n    mapping(uint256=>bool) public orderCancel;\r\n    mapping(uint256=>bool) public orderFill;\r\n    uint256 public orderCount;\r\n\r\n  \r\n    constructor(address _feeAccount, uint256 _feePercent) {\r\n        feeAccount = _feeAccount;\r\n        feePercent = _feePercent;\r\n    }\r\n\r\n    event Deposit(address token, address user, uint256 amount, uint256 balance);\r\n    event WithDraw(\r\n        address token,\r\n        address user,\r\n        uint256 amount,\r\n        uint256 balance\r\n    );\r\n    //\r\n    event Order(\r\n        uint256 id,\r\n        address user,\r\n        address tokenGet,\r\n        uint256 amountGet,\r\n        address tokenGive,\r\n        uint256 amountGive,\r\n        uint256 timestamp\r\n    );\r\n    //\r\n    event Cancel(\r\n        uint256 id,\r\n        address user,\r\n        address tokenGet,\r\n        uint256 amountGet,\r\n        address tokenGive,\r\n        uint256 amountGive,\r\n        uint256 timestamp\r\n    );\r\n\r\n    //\r\n    event Trade(\r\n        uint256 id,\r\n        address user,\r\n        address tokenGet,\r\n        uint256 amountGet,\r\n        address tokenGive,\r\n        uint256 amountGive,\r\n        uint256 timestamp\r\n    );\r\n\r\n    //\r\n    function depositEther() public payable {\r\n        //msg.sender\r\n        //msg.value\r\n        tokens[ETHER][msg.sender] = tokens[ETHER][msg.sender].add(msg.value);\r\n        emit Deposit(ETHER, msg.sender, msg.value, tokens[ETHER][msg.sender]);\r\n    }\r\n\r\n    //\r\n    function depositToken(address _token, uint256 _amount) public {\r\n        require(_token != ETHER);\r\n        //\r\n        require(\r\n            KerwinToken(_token).transferFrom(msg.sender, address(this), _amount)\r\n        );\r\n        tokens[_token][msg.sender] = tokens[_token][msg.sender].add(_amount);\r\n\r\n        emit Deposit(_token, msg.sender, _amount, tokens[_token][msg.sender]);\r\n    }\r\n\r\n    //\r\n    function withdrawEther(uint256 _amount) public {\r\n        require(tokens[ETHER][msg.sender] >= _amount);\r\n        tokens[ETHER][msg.sender] = tokens[ETHER][msg.sender].sub(_amount);\r\n        //payable\r\n        payable(msg.sender).transfer(_amount);\r\n        emit WithDraw(ETHER, msg.sender, _amount, tokens[ETHER][msg.sender]);\r\n    }\r\n\r\n    //KWT\r\n    function withdrawToken(address _token, uint256 _amount) public {\r\n        require(_token != ETHER);\r\n        require(tokens[_token][msg.sender] >= _amount);\r\n\r\n        tokens[_token][msg.sender] = tokens[_token][msg.sender].sub(_amount);\r\n\r\n        //\r\n        require(KerwinToken(_token).transfer(msg.sender, _amount));\r\n\r\n        emit WithDraw(_token, msg.sender, _amount, tokens[_token][msg.sender]);\r\n    }\r\n\r\n    //\r\n    function balanceOf(address _token, address _user)\r\n        public\r\n        view\r\n        returns (uint256)\r\n    {\r\n        return tokens[_token][_user];\r\n    }\r\n\r\n    //makeOrder\r\n    function makeOrder(address _tokenGet,\r\n        uint256 _amountGet,\r\n        address _tokenGive,\r\n        uint256 _amountGive) public{\r\n\r\n        require(balanceOf(_tokenGive,msg.sender)>=_amountGive,unicode\"\");\r\n\r\n        orderCount = orderCount.add(1);\r\n        orders[orderCount] = _Order(orderCount,msg.sender,_tokenGet,_amountGet,_tokenGive,_amountGive,block.timestamp);\r\n\r\n        //\r\n\r\n        emit Order(orderCount,msg.sender,_tokenGet,_amountGet,_tokenGive,_amountGive,block.timestamp);\r\n    }\r\n    //cancelOrder\r\n    function cancelOrder(uint256 _id) public {\r\n        _Order memory myorder = orders[_id];\r\n        require(myorder.id == _id);\r\n        orderCancel[_id] = true;\r\n\r\n        emit Cancel(myorder.id,msg.sender,myorder.tokenGet,myorder.amountGet,myorder.tokenGive,myorder.amountGive,block.timestamp);\r\n    }\r\n    //fillOrder\r\n\r\n    function fillOrder(uint256 _id) public {\r\n        _Order memory myorder = orders[_id];\r\n        require(myorder.id == _id);\r\n        \r\n\r\n        //  && \r\n        /*\r\n            xiaoming , makeorder,\r\n\r\n            100 KWT  ==> 1ether\r\n\r\n            xiaoming , 1ether\r\n            xiaoming 100KWT\r\n\r\n            msg.sender , fillOrder\r\n\r\n            msg.sender, 1ether\r\n            msg.sender ,100KWT\r\n        */\r\n        uint256 feeAmout = myorder.amountGet.mul(feePercent).div(100);\r\n\r\n        require(balanceOf(myorder.tokenGive,myorder.user)>=myorder.amountGive,unicode\"\");\r\n\r\n        require(balanceOf(myorder.tokenGet,msg.sender)>=myorder.amountGet.add(feeAmout),unicode\"\");\r\n\r\n\r\n        tokens[myorder.tokenGet][msg.sender] = tokens[myorder.tokenGet][msg.sender].sub(myorder.amountGet.add(feeAmout));\r\n\r\n        tokens[myorder.tokenGet][feeAccount] = tokens[myorder.tokenGet][feeAccount].add(feeAmout);\r\n\r\n        tokens[myorder.tokenGet][myorder.user] = tokens[myorder.tokenGet][myorder.user].add(myorder.amountGet);\r\n\r\n        tokens[myorder.tokenGive][msg.sender] = tokens[myorder.tokenGive][msg.sender].add(myorder.amountGive);\r\n        tokens[myorder.tokenGive][myorder.user] = tokens[myorder.tokenGive][myorder.user].sub(myorder.amountGive);\r\n\r\n        orderFill[_id] = true;\r\n        emit Trade(myorder.id,myorder.user,myorder.tokenGet,myorder.amountGet,myorder.tokenGive,myorder.amountGive,block.timestamp);\r\n    }\r\n}\r\n",
  "sourcePath": "E:\\1-Kerwin\\Web3.0\\code\\myapp\\contracts\\Exchange.sol",
  "compiler": {
    "name": "solc",
    "version": "0.8.17+commit.8df45f5f.Emscripten.clang"
  },
  "schemaVersion": "3.4.10",
  "updatedAt": "2022-11-25T08:30:35.509Z",
  "networkType": "ethereum",
  "devdoc": {
    "kind": "dev",
    "methods": {},
    "version": 1
  },
  "userdoc": {
    "kind": "user",
    "methods": {},
    "version": 1
  }
}